:100000000C9415030C94F0100C94C9100C943D033F
:100010000C943D030C943D030C942E170C943D035B
:100020000C943D030C943D030C94D4130C9476145F
:100030000C948D130C943D030C943D030C943D03E0
:100040000C947F100C943D030C940C070C94E60662
:100050000C943D030C943D030C943D030C943D0320
:100060000C9430110C943D0300407A10F35A00A018
:10007000724E18090010A5D4E80000E87648170071
:1000800000E40B54020000CA9A3B000000E1F505B1
:10009000000080969800000040420F000000A086FB
:1000A00001000000102700000000E803000000002D
:1000B0006400000000000A000000000001000000D1
:1000C00000002C76D888DC674F0823DFC1DFAE59EB
:1000D000E1B1B796E5E3E453C63AE651997696E87E
:1000E000E6C28426EB898C9B62ED407C6FFCEFBC02
:1000F0009C9F40F2BAA56FA5F490055A2AF75C932D
:100100006B6CF9676DC11BFCE0E40D47FEF520E662
:10011000B500D0ED902E0300943577050080841E45
:10012000080000204E0A000000C80C333333330FA0
:10013000986E12831141EF8D2114893BE65516CF3D
:10014000FEE6DB18D1844B381BF77C1D901DA4BB49
:10015000E424203284725E228100C9F124ECA1E5FE
:100160003D2700000000240027002A0000000000B6
:10017000250028002B000000000023002600290095
:10018000040404040404040402020202020203033D
:100190000303030301020408102040800102040845
:1001A00010200102040810200000000800020100D5
:1001B000000304070000000000000000214D434F31
:1001C0003A534E443A4E4F4445204E4F54205245E8
:1001D000470A0054534D3A52454144593A49443D27
:1001E00025752C5041523D25752C4449533D2575AC
:1001F0000A002154534D3A52454144593A55504C06
:10020000204641494C2C534E500A005453463A5410
:1002100044493A54534C0A0054534D3A4641494CD0
:100220003A4449530A0054534D3A4641494C3A43E3
:100230004E543D25750A0054534D3A4641494C3AB7
:1002400052452D494E49540A004D434F3A50494DAD
:100250003A4E4F4445205245473D25750A002154EA
:1002600053463A4D53473A52454C204D53472C4E36
:100270005245500A005453463A4D53473A42430AB6
:10028000005453463A4D53473A41434B0A002154D8
:1002900053463A4D53473A504F4E472052454356E6
:1002A0002C494E4143544956450A005453463A4D51
:1002B00053473A504F4E4720524543562C48503DE5
:1002C00025750A005453463A4D53473A50494E4714
:1002D00045442C49443D25752C48503D25750A0060
:1002E000215453463A4D53473A4650415220494EC5
:1002F0004143544956450A005453463A4D53473AF0
:1003000046504152204F4B2C49443D25752C443DCD
:1003100025750A005453463A4D53473A41434B2002
:100320005245510A00215453463A4D53473A5056CC
:1003300045522C2575213D25750A00215453463A16
:100340004D53473A4C454E2C2575213D25750A00E5
:100350005453463A4D53473A524541442C25752D46
:1003600025752D25752C733D25752C633D25752C24
:10037000743D25752C70743D25752C6C3D25752CB0
:1003800073673D25753A25730A0025735453463A21
:100390004D53473A53454E442C25752D25752D2533
:1003A000752D25752C733D25752C633D25752C7495
:1003B0003D25752C70743D25752C6C3D25752C7371
:1003C000673D25752C66743D25752C73743D25732A
:1003D0003A25730A00215453463A5254453A46503E
:1003E0004152204143544956450A00215453463A4C
:1003F000534E443A544E520A004D434F3A524547E9
:100400003A5245510A00322E332E300A00207C5FCA
:100410005C2F602C0A0702200220B28710034001E3
:1004200020002402221002220202200222002220A6
:100430000202202227101341010101032220304033
:100440002030520340221402031052240221710171
:1004500000101012101222101002240101032203B6
:10046000002001010032203712100121322601281C
:10047000403222121012122243222412100122248E
:1004800070C122240F0F5453463A5755523A4D53D8
:100490003D256C750A004D434F3A42474E3A494E4E
:1004A0004954204F4B2C5453503D25750A004D4361
:1004B0004F3A42474E3A5354500A004D434F3A4246
:1004C000474E3A4246520A004D434F3A42474E3A4F
:1004D000494E4954204E4F44452C43503D52534EB3
:1004E0004E412D2D2D2C5645523D322E332E300AA5
:1004F000004757204D73672073746F702C20432082
:10050000004757204D736720646F776E2C2043207F
:100510000041636B206368696C64312066726F6DA3
:10052000206777207265632E00200054534D3A49AE
:100530004E49540A005453463A5349443A4F4B2CBF
:1005400049443D25750A00215453463A5349443ADB
:100550004641494C2C49443D25750A0054534D3AB7
:10056000494E49543A5354415449443D25750A0073
:1005700054534D3A494E49543A545350204F4B0A24
:100580000054534D3A465041520A002154534D3ABB
:10059000465041523A4E4F205245504C590A002184
:1005A00054534D3A465041523A4641494C0A005440
:1005B000534D3A465041523A4F4B0A0054534D3A2C
:1005C00049443A5245510A0054534D3A49440A00AD
:1005D0002154534D3A49443A4641494C0A00545338
:1005E0004D3A49443A4F4B0A0054534D3A55504CFA
:1005F0000A002154534D3A55504C3A4641494C0A51
:100600000054534D3A55504C3A444757432C4F3DB4
:1006100025752C4E3D25750A0054534D3A55504CC6
:100620003A4F4B0A0000AC1A241D11241FBECFEF15
:10063000D8E0DEBFCDBF11E0A0E0B1E0E2EDFBE429
:1006400002C005900D92AC3FB107D9F726E0ACEFA0
:10065000B1E001C01D92AE3CB207E1F713E0C4E186
:10066000D3E004C02197FE010E94B925C331D10710
:10067000C9F70E94EC1B0C94DC250C940000CF926F
:10068000DF92EF92FF920F931F93CF93DF936C0152
:100690007A018B01C0E0D0E0CE15DF0589F0D801EA
:1006A0006D918D01D601ED91FC910190F081E02DCD
:1006B000C6010995892B11F47E0102C02196ECCF69
:1006C000C701DF91CF911F910F91FF90EF90DF90C5
:1006D000CF900895FC01538D448D252F30E0842F59
:1006E00090E0821B930B541710F0CF96089501975A
:1006F0000895FC01918D828D981761F0828DDF0144
:10070000A80FB11D5D968C91928D9F5F9F73928F04
:1007100090E008958FEF9FEF0895FC01918D828DF9
:10072000981731F0828DE80FF11D858D90E00895C6
:100730008FEF9FEF0895FC01918D228D892F90E01E
:10074000805C9F4F821B91098F739927089588EAD7
:1007500092E00E949B0321E0892B09F420E0822F84
:100760000895FC01848DDF01A80FB11DA35ABF4F6E
:100770002C91848D90E001968F739927848FA689A0
:10078000B7892C93A089B1898C9180648C93938DC7
:10079000848D981306C00288F389E02D80818F7DB7
:1007A00080830895EF92FF920F931F93CF93DF936F
:1007B000EC0181E0888F9B8D8C8D981305C0E889B2
:1007C000F989808185FD24C0F62E0B8D10E00F5F26
:1007D0001F4F0F731127E02E8C8DE8120CC00FB63F
:1007E00007FCFACFE889F989808185FFF5CFCE0132
:1007F0000E94B103F1CF8B8DFE01E80FF11DE35A8A
:10080000FF4FF0820B8FEA89FB898081806207C0ED
:10081000EE89FF896083E889F9898081806480831B
:1008200081E090E0DF91CF911F910F91FF90EF90C9
:100830000895CF93DF93EC01888D8823C9F0EA896E
:10084000FB89808185FD05C0A889B9898C9186FDC9
:100850000FC00FB607FCF5CF808185FFF2CFA889C6
:10086000B9898C9185FFEDCFCE010E94B103E7CF0E
:10087000DF91CF91089580E090E0892B29F00E94CC
:10088000A70381110C9400000895833081F028F4AF
:10089000813099F08230A1F008958730A9F0883036
:1008A000B9F08430D1F4809180008F7D03C08091B5
:1008B00080008F7780938000089584B58F7702C081
:1008C00084B58F7D84BD08958091B0008F7703C07B
:1008D0008091B0008F7D8093B00008953FB7F89469
:1008E0008091000290910102A0910202B091030256
:1008F00026B5A89B05C02F3F19F00196A11DB11D7B
:100900003FBFBA2FA92F982F8827820F911DA11DB5
:10091000B11DBC01CD0142E0660F771F881F991FF2
:100920004A95D1F708950E94BF25E9E2F5E090913C
:10093000A402918382836683258347708481807EAD
:10094000482B4483CF0108952091A3029091A202E5
:10095000213208F04AC080917F028111FCCF32E041
:1009600030937F0231E030937E023FEF30937D027F
:1009700010927C0220937B02A2E8B2E04BE552E0A9
:10098000FA013E2F341B321718F43D913193F9CF01
:1009900010925A0220915A02990F922B90935A0268
:1009A00090915902913061F41092590290915A023B
:1009B0009093BB009091BC0093FDF8CF95EC01C0E3
:1009C00095EE9093BC0090917F029230E1F390916C
:1009D0007D029F3F79F080917D02803241F08091CD
:1009E0007D02803331F084E005C081E003C082E005
:1009F00001C083E0109281021092A3021092800243
:100A000008950F931F93CF93DF93EC018C81829510
:100A10008695877091F44B8146954695469550E0B2
:100A2000BE01695F7F4F86E292E00E94CD25EB8197
:100A3000E695E695E695F0E077C0813031F48F8158
:100A40004AE066E272E090E007C0823041F44AE09A
:100A500066E272E08F8198850E94031E68C0833031
:100A600041F44AE066E272E08F8198850E945C1E44
:100A70005EC0843051F46F81788589859A852AE03B
:100A800046E252E00E940E1E52C0853051F46F8142
:100A9000788589859A852AE046E252E00E943A1ECE
:100AA00046C0873071F42B85293008F028E06F812B
:100AB000788589859A8506E212E042E00E94421D0F
:100AC00036C08630A1F520E0EB81E695E695E69507
:100AD0002E1738F5E22FF0E0AF01440F551FDA0171
:100AE000AA5DBD4FEC0FFD1F8781082E000C990BEE
:100AF00034E0959587953A95E1F78F708A3010F438
:100B0000805D01C0895C8C93DA01A95DBD4F87814E
:100B10008F708A3010F4805D01C0895C8C932F5FE8
:100B2000D3CFF0E0EE0FFF1FEA5DFD4F108286E2AB
:100B300092E0DF91CF911F910F91089580914E0522
:100B4000829586958770813019F4809151050895BA
:100B5000811105C081E595E00E94BE1D089580E0E9
:100B60000895009769F0FC0101900020E9F73197A2
:100B7000AF01481B590BBC0188EA92E00C943F037B
:100B800080E090E008950F931F93CF93DF938C0143
:100B9000C0E0D0E0F801EC0FFD1F6491662371F016
:100BA000E091A802F091A9020190F081E02D88EA7D
:100BB00092E00995892B11F02196ECCFCE01DF91BF
:100BC000CF911F910F9108950C94B1058F929F9230
:100BD000AF92BF920F931F93CF93DF93CDB7DEB742
:100BE000A1970FB6F894DEBF0FBECDBF19A2423059
:100BF00008F44AE08E010F5D1F4F842E912CA12C2A
:100C0000B12CA50194010E94BF24E62FB901CA01AD
:100C100001501109EA3014F4E05D01C0E95CD8012B
:100C2000EC93232B242B252B61F7C8010E94B105DF
:100C3000A1960FB6F894DEBF0FBECDBFDF91CF9166
:100C40001F910F91BF90AF909F908F900895CF927A
:100C5000DF92EF92FF92CF93DF936C01990FEE0832
:100C6000FF08F7FE1AC0E091A802F091A9020190D6
:100C7000F081E02D6DE288EA92E00995EC016627AB
:100C80007727CB016C197D098E099F094AE00E94E4
:100C9000E6057C01EC0EFD1E06C04AE0C701B60168
:100CA0000E94E6057C0180E791E00E94B1058E0D6F
:100CB0009F1DDF91CF91FF90EF90DF90CF9008952F
:100CC000CF93DF93682F70E080E090E04AE00E94CD
:100CD000E605EC0180E791E00E94B1058C0F9D1FB5
:100CE000DF91CF910895CF93DF93262F8F3F19F097
:100CF000C2E7D1E002C0C3E7D1E040E0682F80E066
:100D00000E949504BE010E94BF08DF91CF910C9410
:100D1000080AFC018091A40281839481907F9160F4
:100D200094838091250280FF03C0CF010C94080AB0
:100D30008CEB91E09F938F930E943B150F900F9047
:100D400080E0089590917F029111FCCF91E0909303
:100D50007F0290937E022FEF20937D0210927C02FF
:100D6000260F20937B0290935A0290915A02880F8B
:100D7000892B80935A0280915902813061F410923C
:100D8000590280915A028093BB008091BC0083FD80
:100D9000F8CF85EC01C085EE8093BC0080917F0286
:100DA0008130E1F380917C02861710F460917C021F
:100DB000ABE5B2E024E032E0F9018E2F821B86170A
:100DC00018F48D918193F9CF862F08951F920F9279
:100DD0000FB60F9211242F933F934F935F936F930E
:100DE0007F938F939F93AF93BF93EF93FF9388EA83
:100DF00092E00E94B103FF91EF91BF91AF919F915B
:100E00008F917F916F915F914F913F912F910F90B3
:100E10000FBE0F901F9018951F920F920FB60F9252
:100E200011242F938F939F93EF93FF93E091B80238
:100E3000F091B9028081E091BE02F091BF0282FD83
:100E400012C090818091C1028F5F8F732091C20286
:100E5000821751F0E091C102F0E0E855FD4F958F07
:100E60008093C10201C08081FF91EF919F918F918A
:100E70002F910F900FBE0F901F901895CF93DF9377
:100E8000282F30E0F901E855FE4F8491F901EC5626
:100E9000FE4FD491F901E058FE4FC491CC2391F05C
:100EA00081110E944504EC2FF0E0EE0FFF1FEA587D
:100EB000FE4FA591B491EC91ED2381E090E021F4F7
:100EC00080E002C080E090E0DF91CF9108951F9311
:100ED000CF93DF93282F30E0F901E855FE4F84913E
:100EE000F901EC56FE4FD491F901E058FE4FC49140
:100EF000CC23C9F0162F81110E944504EC2FF0E09D
:100F0000EE0FFF1FE459FE4FA591B4918FB7F894EF
:100F1000111105C09C91ED2FE095E92302C0EC91E1
:100F2000ED2BEC938FBFDF91CF911F910895CF935D
:100F3000DF9390E0FC01EC56FE4F2491FC01E05859
:100F4000FE4F8491882361F190E0880F991FFC0186
:100F5000EE59FE4FC591D491FC01E459FE4FA59185
:100F6000B491611109C09FB7F894888120958223BC
:100F70008883EC912E230BC0623061F49FB7F89404
:100F80003881822F809583238883EC912E2B2C939C
:100F90009FBF06C08FB7F894E8812E2B28838FBFA0
:100FA000DF91CF9108958F929F92AF92BF92CF928F
:100FB000DF92EF92FF926B017C010E946E044B0165
:100FC0005C01C114D104E104F104F1F00E946E044B
:100FD000DC01CB0188199909AA09BB09883E934015
:100FE000A105B10570F321E0C21AD108E108F108AA
:100FF00088EE880E83E0981EA11CB11CC114D10498
:10100000E104F10419F7DDCFFF90EF90DF90CF906E
:10101000BF90AF909F908F9008952FB7F8946091F4
:10102000FC017091FD018091FE019091FF012FBFA5
:101030000895CF92DF92EF92FF92CF93DF93D82F54
:101040000E940D086B017C0181E0D11180E080934A
:101050004F05C0E00E940D08AB01BC014C195D09B1
:101060006E097F09403D57406105710580F4C1114B
:101070000EC0A8950E948D0A90914E0597709330EE
:1010800049F7C1E080914F058D13E3CFE3CF8C2F5B
:10109000DF91CF91FF90EF90DF90CF9008958091F6
:1010A000AD05982F9077903759F0982F92959F70B3
:1010B0009F5F97709295907F8F78892B8093AD0575
:1010C0008091AD05829587701F928F9386E292E0A2
:1010D0009F938F930E943B158091AC058B7F8F7EF1
:1010E0008093AC0588E192E09F938F930E943B151B
:1010F0008BE092E09F938F930E943B158DB79EB734
:1011000008960FB6F8949EBF0FBE8DBF08958091CC
:10111000A6021F928F938091A5021F928F938091B8
:10112000A4021F928F9383ED91E09F938F930E946F
:101130003B158091AC0584608093AC058091AD0532
:1011400080788093AD05E091B105F091B2058DB73F
:101150009EB708960FB6F8949EBF0FBE8DBF30970E
:1011600009F009940895FC01838187708860838366
:1011700084818F71806284836783CF0108950F9388
:101180001F93CF93DF93EC016115710561F0FB01B3
:1011900001900020E9F73197E61BF70BE931F105E3
:1011A00018F0E9E101C0E0E00E2F10E0C80123E0F3
:1011B000880F991F2A95E1F79B819770892B8B8364
:1011C0008C818F718C83EE2329F0A801CE010796C4
:1011D0000E94CD25FE01E00FF11F1782CE01DF91A5
:1011E000CF911F910F910895AF92BF92CF92DF924E
:1011F000EF92FF920F931F93CF93DF93EC018A81BD
:101200009091AC0590FF0CC08F3F79F085ED93E095
:101210009F938F930E943B150F900F9010E0ECC0AE
:101220008F3F19F0F090A50202C0FF24FA9480913C
:10123000A40288831B8112FD05C01695169516958C
:10124000195F01C010E20AE094E1A92EB12C0E94BE
:10125000E5128823B9F00E94AE1DB5010E949125C8
:10126000D82EC12CCD1450F461E070E080E090E005
:101270000E94D3070E94E512C394F4CF015039F7BE
:1012800010E03EC0113208F010E25A9A8FE090E070
:101290000197F1F781E00E94FE148F2D0E94FE1449
:1012A0000091A105802F0E94FE1488E50E94FE1483
:1012B000085A0F0D812F0E94FE14010F82E00E9438
:1012C000FE14EC2ECC2EDD2E5601F60181916F011D
:1012D0000E94FE14F5018081080F8C2D8E19811754
:1012E00098F383E00E94FE14802F0E94FE1484E095
:1012F0000E94FE148091B9058111FCCF5A9811E02B
:1013000081E0FFEFFF1280E0182B8C818770833023
:1013100019F48D81813129F0CE010E940105FC0173
:1013200002C0E9E7F1E0111103C064E871E002C016
:1013300061E871E05091AD055F709B8192FBAA243A
:10134000A0F8492F4695469546959C81B92EB294B2
:10135000B69487E0B822ED809770CE80DA80AF2D0A
:10136000B0E0088189812091A70220FD05C01111FC
:1013700006C02BE831E005C029E831E002C022E7D1
:1013800031E0FF93EF937F936F931F925F931F92D0
:10139000AF921F924F931F92BF921F92EF921F9294
:1013A0009F931F92CF921F92DF92BF93AF931F9292
:1013B0000F931F928F933F932F938AE893E09F930D
:1013C0008F930E943B158DB79EB74E960FB6F8943B
:1013D0009EBF0FBE8DBF8091A502F8120DC08091F7
:1013E000AD05111106C091E0980F9F70807F892B89
:1013F00001C0807F8093AD05812FDF91CF911F9138
:101400000F91FF90EF90DF90CF90BF90AF90089535
:101410002091AC0522FD0C94F4088BEE93E09F9391
:101420008F930E943B150F900F9080E00895CF930B
:101430002FE043E06FEF80E00E94950462E771E0E7
:101440000E94BF08E9E2F5E08381877080618383B1
:1014500084818F71806C848381E087831086CF01C3
:101460000E94080A8FE00E94190861E18FEF0E9434
:101470007306C091A50226E043E06FEF80E00E9472
:1014800095046C2F0E94B3080E94080A86E00E940F
:101490001908CF910C94D819CF938091250281FD22
:1014A00027C00E94170A89EF93E09F938F930E94B1
:1014B0003B15809125028160809325020F900F904B
:1014C000C4E02AE143E06FEF80E00E94950462E00F
:1014D0000E94B3080E94080A8BE10E94190881113A
:1014E00002C0C15071F7809125028260809325026D
:1014F000CF9108950F931F930E940D080091A405AA
:101500001091A5052091A6053091A705601B710BD0
:10151000820B930B1F910F9108952F923F924F9240
:101520005F926F927F928F929F92AF92BF92CF9273
:10153000DF92EF92FF920F931F93CF93DF9300D030
:1015400000D000D0CDB7DEB7E091A205F091A305A1
:10155000309721F00280F381E02D09958091AC0550
:1015600084FF4CC236E0398389E4282E82E0382E8D
:101570009EE8E92E92E0F92E2BEAC22E22E0D22E2E
:1015800034ECA32E32E0B32E40EE842E42E0942EB3
:101590000E94E5121091A005112309F42FC2398190
:1015A00031503983332309F429C250909F05452DCA
:1015B00050E067E775E08AE495E00E94C425109248
:1015C000A00580914D05382F3695369536953A31E0
:1015D00008F039E182FD10C247E0430F80914E05CB
:1015E00087708D8300914F0520914B052E8340908D
:1015F0004A0550914C05833011F4013159F08AE4C9
:1016000095E03A834C835B830E9401053A814C81CB
:101610005B8102C089E791E0632E712C9F938F93C9
:1016200080914D0582FB882780F91F928F931F922E
:101630003F9380914E058295869587701F928F9378
:101640001F920F931F923D813F93809150051F92EF
:101650008F931F925F931F924F921F923E813F93F1
:10166000A0E5B3E0BF93AF934C835B830E943B152F
:101670000FB6F894DEBF0FBECDBF4C815B81541610
:1016800039F01F924F931F925F928BE393E00DC04E
:1016900030914D05832F8370823091F01F9292E03C
:1016A0009F931F928F9385E293E09F938F930E9465
:1016B0003B150F900F900F900F900F900F9068CFE9
:1016C0008091AD0580688093AD058091A402581388
:1016D00055C0832F8695869586958A3108F089E1D5
:1016E000A8E08A9FC00111243770382B30934D0534
:1016F000F301E65BFA4F178280914E0583FF22C00B
:1017000084E193E09F938F930E943B1581E2EAE48A
:10171000F5E0A9E2B5E001900D928A95E1F780919C
:101720002D05877F806180932D058091A402809391
:101730002A053E8130932B0589E295E00E94080A34
:101740000F900F9090914E0594FD0BC02D8123308A
:1017500081F480914F0531EF380F333008F04FC0DE
:1017600017CFA1E8B2E0BF93AF930E943B150F9053
:101770000F908AE495E00E945E0F0ACF5F3FB1F5BB
:10178000A5E7B2E0BF93AF930E943B150F900F9077
:101790003D81333031F58091AC0582FF03C00730C5
:1017A00009F4F6CE083009F4F3CE043109F0F0CE96
:1017B0008091A5024812ECCE0E940D087370882714
:1017C00099270E94D3071091A50225E143E06FEF0E
:1017D0008E810E949504612F0E94B3080E94F40834
:1017E000D7CE8091A5024812D3CEC3CFAEE5B2E0EA
:1017F000BF93AF930E943B150F900F90C9CE04305A
:1018000009F4C6CE083019F51091AC0510FF1CC0C4
:101810000E949E058F3F09F4BBCE8F5F8F3F09F476
:10182000B7CE9091A602891708F0B2CE11FDB0CEC6
:101830008093A6023E813093A5021F928F931F9240
:101840003F9388EF92E031CF9F928F92D3CF0831B0
:10185000B9F40E949E051F928F931F923E813F9381
:10186000BF92AF920E943B1529E143E06FEF8E815A
:101870000E94950461E00E94B3080E94F40819CF09
:10188000093199F48091AC0583FF0CC0877F809368
:10189000AC050E949E058093AE051F928F93DF9248
:1018A000CF9226C0FF92EF92A5CF30914B05311118
:1018B00085C08D3059F498E088E10FB6F894A8956A
:1018C000809360000FBE90936000FFCF8B31B9F41E
:1018D0000E949E0591E0811101C090E08091250257
:1018E00090FB80F9809325021F929F933F922F9245
:1018F0000E943B150F900F900F900F9049CE8630AD
:1019000099F480915105882321F011E08D3409F07C
:1019100010E01093240241E050E063E071E084E2C3
:1019200092E00E94342434CE833119F40E94170AC5
:101930002FCE8231D9F40E947A0A2B013C0126E194
:1019400043E06FEF80E00E949504FC0184818F7179
:10195000806A848383818770806283834782508614
:1019600061867286CF010E94080A12CE813001F58D
:10197000A0E0B0E0AB2B09F40BCE92959695977052
:10198000953049F46091510570915205809153054D
:10199000909154050AC0911105C081E595E00E941F
:1019A000DC1D03C060E070E0CB010E940000F0CDC0
:1019B0008A3009F4EDCD8C3121F4EACD8A3109F475
:1019C000E7CD0E3109F4E4CD0D3109F0D2CE2FE18F
:1019D00043E06FEF80E00E949504FC0184818F71E9
:1019E00080648483838187708061838320E03FEFFC
:1019F00030872783CF01F2CE40E2F0CD26960FB696
:101A0000F894DEBF0FBECDBFDF91CF911F910F9134
:101A1000FF90EF90DF90CF90BF90AF909F908F900E
:101A20007F906F905F904F903F902F9008959C0112
:101A30008091A2059091A3058217930751F0909190
:101A4000AC059F719093AC053093A3052093A2053C
:101A500005C08091AC05805E8093AC05E091A20545
:101A6000F091A305309721F00190F081E02D0995C8
:101A70000E940D086093A4057093A5058093A605A8
:101A80009093A70508950F931F930E947A0A2091BF
:101A9000AD052077203729F000E117E220E030E0A3
:101AA00004C000E61AEE20E030E00617170728070A
:101AB000390770F487E392E09F938F930E943B1560
:101AC0000F900F9084E091E01F910F910C94170DEF
:101AD0001F910F9108958091AD058F70863060F051
:101AE00082EF91E09F938F930E943B150F900F9090
:101AF00080E091E00C94170D089508958091BB0546
:101B000090E02091BA05821B91090895DF92EF922F
:101B1000FF920F931F93CF93DF931F92CDB7DEB742
:101B20008C01DC01ED91FC910480F581E02D21E038
:101B3000AE014F5F5F4F60ED09958981883541F0B7
:101B4000803671F420E630E0F80132AB21AB0DC0F5
:101B500028E530E0D801D2963C932E93D19705C06A
:101B6000F80112AA11AAF12C72C0D801D0968C9358
:101B7000D097ED91FC910480F581E02D26E0A8013D
:101B8000405F5F4F68E8C8010995F82ED801ED91D4
:101B9000FC910480F581E02D22E1A8014A5E5F4FAF
:101BA0006EE8C8010995F822D801ED91FC910480F6
:101BB000F581E02D21E0A801485D5F4F61EAC80191
:101BC0000995F822D801ED91FC910480F581E02D72
:101BD00027E0A801475D5F4F61EEC8010995F82233
:101BE000F8018281982F9295990F907E8681880FB7
:101BF000880F892BD084D82A8285982F9295990FA7
:101C0000907E8485880F880F892BE684E82A0190CE
:101C1000F081E02D0280F381E02DD80114964C91E3
:101C200062EFC8010995D801ED91FC910280F38122
:101C3000E02D4D2D64EFC8010995D801ED91FC917F
:101C40000280F381E02D4E2D65EFC8010995F80162
:101C5000F3AA8F2D0F90DF91CF911F910F91FF90DD
:101C6000EF90DF90089585ED8093BC008091BC00DB
:101C700084FDFCCF10927F0208954091DE05262F4F
:101C800030E0240F311D21323105DCF420917F0238
:101C90002430C9F4FC0180E090E0861758F43091BC
:101CA000DE052191DC01A454BA4FA30FB11D2C9382
:101CB0000196F3CF8091DE05680F6093DE0580E02A
:101CC000089581E0089582E008950895E091BA05AD
:101CD0008091BB05E81730F4F0E0EC5FFD4F8081A8
:101CE00090E008958FEF9FEF08959091BA0580914D
:101CF000BB05981750F4E92FF0E0EC5FFD4F208111
:101D000030E09F5F9093BA0502C02FEF3FEFC9010B
:101D10000895CF92DF92EF92FF920F931F93CF938C
:101D2000DF937C01262F972F8A01809180028823E0
:101D300091F0C62FD72F6E01C40ED51ECC15DD0530
:101D400071F06991D701ED91FC910190F081E02D46
:101D5000C7010995F3CF642F822F0E943D0EC80161
:101D6000DF91CF911F910F91FF90EF90DF90CF9077
:101D70000895CF93DF931F92CDB7DEB7698320918B
:101D800080022223D1F02091A302203240F021E0F2
:101D900030E0FC013383228380E090E015C0809125
:101DA0008102E82FF0E0EE57FD4F998190838F5F1D
:101DB000809381028093A30205C061E0CE01019669
:101DC0000E943D0E81E090E00F90DF91CF91089549
:101DD000CF93DF931F92CDB7DEB7FC0184A991E0CA
:101DE000909380028093A202109281021092A3022B
:101DF00085E493E049830E94B90E4981642F85E40C
:101E000093E00E94B90E0E94A40481E00F90DF913C
:101E1000CF910895CF92DF92EF92FF920F931F938D
:101E2000CF938C017A01C22FFC0184A991E0909399
:101E300080028093A202109281021092A30285E494
:101E400093E00E94B90E0E94A4046C2FC13208F0E6
:101E500060E2F80184A90E94A2061092BA0580935C
:101E6000BB0590E02091BB058091BA05281769F069
:101E700011E0190F6701C90ED11C85E493E00E949F
:101E8000750EF6018083912FEDCF81E09C1380E0E9
:101E9000CF911F910F91FF90EF90DF90CF90089519
:101EA000862F642F0C949707FC0181850E943E07C2
:101EB00021E0892B09F420E0822F0895EF92FF9210
:101EC0001F93CF93DF93EC019E819250933008F0E3
:101ED00010C18C8184FF08C081E195E00E94C30598
:101EE00080E791E00E94B1058D81833009F098C0B0
:101EF0008C818295869587701E81823019F4EF80DF
:101F0000F88407C081110AC0CE0107960E94BE1D49
:101F10007C0182E3E816F104B4F502C0E12CF12C57
:101F2000212F30E022503109F901EE0FFF1FED544F
:101F3000FA4F80819181AC014250510942305105E4
:101F400008F46EC0892B61F043E1429FC001439FBA
:101F5000900D112440E061E082539B4F0E9438179E
:101F60002E8130E02250310943E1429FC001439F5E
:101F7000900D112440E061E082539B4F0E9438177E
:101F80008DE891E048C0212F30E02250310982E3F2
:101F9000E816F10499F443E1429FC001439F900D7C
:101FA000112440E060E082539B4F0E9438178DE976
:101FB00091E00E94E40582E390E030C0F901EE0F69
:101FC000FF1FED54FA4F808191818130910541F1DD
:101FD0008430910529F1892B61F043E1429FC001D2
:101FE000439F900D112441E060E082539B4F0E947B
:101FF00038172E8130E02250310943E1429FC00161
:10200000439F900D112441E060E082539B4F0E945A
:1020100038178FEA91E00E94E405C7010E94270665
:102020008D818D3119F52E8130E022503109F90171
:10203000EE0FFF1FED54FA4F8081918181309105A1
:10204000A9F0049799F043E1429FC001439F900D8E
:10205000112440E061E082539B4F0E9438178DEBC2
:1020600091E00E94E4058E810E9460068D818E3190
:1020700009F52E8130E022503109F901EE0FFF1FE2
:10208000ED54FA4F808191810297029798F043E1D5
:10209000429FC001439F900D112441E060E08253B4
:1020A0009B4F0E94381781E095E00E94C3058E8106
:1020B0000E9460068D818F31E1F42E8130E0225044
:1020C000310943E1429FC001439F900D112440E03C
:1020D00060E082539B4F0E94381781EF94E00E948A
:1020E000C3058E81DF91CF911F91FF90EF900C94EB
:1020F0006006DF91CF911F91FF90EF9008951F929E
:102100000F920FB60F9211242F933F938F939F93AB
:10211000AF93BF938091FC019091FD01A091FE01CE
:10212000B091FF013091030623E0230F2D3720F4F7
:102130000196A11DB11D05C026E8230F0296A11D21
:10214000B11D209303068093FC019093FD01A093A1
:10215000FE01B093FF018091000290910102A091D5
:102160000202B09103020196A11DB11D80930002ED
:1021700090930102A0930202B0930302BF91AF912A
:102180009F918F913F912F910F900FBE0F901F90B5
:1021900018951F920F920FB60F9211242F933F9311
:1021A0004F935F936F937F938F939F93AF93BF935F
:1021B000EF93FF93E0910A01F0910B010995FF91D4
:1021C000EF91BF91AF919F918F917F916F915F91AF
:1021D0004F913F912F910F900FBE0F901F90189528
:1021E0001F920F920FB60F9211242F933F934F938C
:1021F0005F936F937F938F939F93AF93BF93EF936F
:10220000FF93E0910801F09109010995FF91EF9189
:10221000BF91AF919F918F917F916F915F914F91FE
:102220003F912F910F900FBE0F901F901895CF9355
:10223000DF93EC0169871886E881F9810190F081CC
:10224000E02D0995882319F08885836088870E948E
:102250000D086A837B838C839D83DF91CF910895E2
:102260001F920F920FB60F9211242F933F934F930B
:102270005F936F937F938F939F93AF93BF93EF93EE
:10228000FF938091B900887F803609F49CC068F57F
:10229000883209F45BC090F4803109F454C038F4FA
:1022A000882309F4F6C0883009F44DC0F6C088319F
:1022B00009F44CC0803209F45DC0EFC0803409F4E9
:1022C00068C048F4803309F455C0883309F0E5C08C
:1022D00080937D02D8C0803509F44FC0883509F459
:1022E0005DC0883409F0D9C0D6C0883909F4C7C0A8
:1022F000A8F4883709F467C038F4883609F463C055
:10230000803709F460C0C9C0883809F4B8C0803982
:1023100009F45FC0803809F0C0C05BC0803B09F49D
:1023200086C038F4803A09F466C0883A09F47FC060
:10233000B4C0803C09F4A7C0883C09F4A4C0883B21
:1023400009F48AC0AAC080915A0210C090917C0200
:1023500080917B02981770F5E0917C0281E08E0FEE
:1023600080937C02F0E0E55AFD4F80818093BB00B2
:1023700085EC86C080937D028EC0E0917C0281E076
:102380008E0F80937C028091BB00F0E0E55AFD4FF8
:10239000808390917C0280917B026EC0E0917C02F0
:1023A00081E08E0F80937C028091BB00F0E0E55AC3
:1023B000FD4F808380917E0281116DC081E080930A
:1023C000590284EA61C083E080937F021092020682
:1023D000CFCF80910206803208F051C0E091020612
:1023E00081E08E0F809302068091BB00F0E0EE51F9
:1023F000FA4F8083BDCF85EC8093BC0010927F02A2
:1024000080910206803230F4E0910206F0E0EE5155
:10241000FA4F10826091020670E0E091E005F091C1
:10242000E10582EE95E009951092020636C084E03F
:1024300080937F021092DF051092DE05E091DC05AB
:10244000F091DD0509958091DE05811105C081E0DF
:102450008093DE051092BC05E091DF0581E08E0FD0
:102460008093DF05F0E0E454FA4F80818093BB0055
:102470009091DF058091DE05981708F479CF85E803
:102480008093BC000AC085EC8093BC0010927F0250
:1024900004C010927D020E94330EFF91EF91BF9114
:1024A000AF919F918F917F916F915F914F913F91EC
:1024B0002F910F900FBE0F901F90189510927F02D2
:1024C00081E080937E021092590261E082E10E94D5
:1024D000670761E083E10E946707E9EBF0E0808134
:1024E0008E7F808380818D7F808388E48093B80095
:1024F00085E48093BC0008951092B8061092AC0653
:102500001092AD061092AE061092AB061092B10674
:1025100008955091B7054091B805852F90E0242F7C
:1025200030E0541710F4805B9F4F821B930B08958B
:102530008091B705E091B8058E1731F0F0E0E65ACA
:10254000F94F808190E008958FEF9FEF089580917B
:10255000B7059091B805891769F09F5F903508F02D
:1025600090E0E92FF0E0E65AF94F80819093B805AA
:1025700090E008958FEF9FEF08958091B905811144
:10258000FCCF0895089580E090E008950F931F9385
:10259000CF93DF93EC018B011B861C861D861E8664
:1025A00061E088810E94670766E970E080E090E062
:1025B0000E94D30761E08A810E9467071A87098712
:1025C000DF91CF911F910F9108951F93CF93DF93C8
:1025D0008BE695E00E948912892B09F499C0C4E02A
:1025E000D2E015E08BE695E00E948912892B09F470
:1025F0008DC08BE695E00E94A7129091B8069230AC
:1026000009F461C030F4992359F0913009F447C0BE
:10261000E9CF933009F45CC0943009F45EC0E2CF96
:10262000E3EBF6E0A2EBB6E0912F01900D929A95C4
:10263000E1F78093B7064091B206413099F68230B7
:1026400089F69091B3063091B406931759F290939E
:10265000B0063093AF068091B5068093AE06209108
:10266000B6062093AD06592F530F850F820F809326
:10267000B1064093B8061092AC06283218F00E94BA
:102680007C12B0CF8091A1053817C9F3981711F0CB
:102690009F3FA9F72111A6CFD093B806A3CFE09111
:1026A000AC0691E09E0F9093AC06F0E0E958FA4F2B
:1026B00080832091B106820F8093B1068091AD0690
:1026C000981390CFE9CF8330D1F68093B8068ACFA4
:1026D0008093AB06C093B80685CF8430A9F490915F
:1026E000AB068091B10698130FC08091AE06883575
:1026F00059F48091AF068093AA068091AD0680932D
:102700009F0581E08093A0050E947C1281E001C0BA
:1027100080E0DF91CF911F9108951F920F920FB625
:102720000F9211242F938F939F93EF93FF93809198
:102730006F008B7F80936F00809181008F7B8093EF
:1027400081008091BB06209159062058909158062F
:10275000893020F49695922B8F5FFACF909358068C
:102760008091B7058F5F803508F080E02091B80533
:10277000821739F0E82FF0E0E65AF94F9083809302
:10278000B7051092BB06809181008F7B80938100FA
:1027900010925906FF91EF919F918F912F910F9079
:1027A0000FBE0F901F9018951F920F920FB60F92A9
:1027B00011242F933F934F935F936F937F938F9346
:1027C0009F93EF93FF9380918600909187004091B3
:1027D000590620918100442331F02F7B2093810002
:1027E0001092590606C020642093810020E82093AF
:1027F00059063091BB06311125C0411168C02091A6
:10280000BC063091BD06280F391F30938B002093F2
:102810008A0024E026BB20916F00246020936F0083
:102820002091BE063091BF06820F931F36952795E3
:10283000820F931F909357068093560681E08093F2
:10284000BB0645C04091560650915706E091590687
:10285000209158066091BE067091BF06841B950BAF
:1028600097FD2DC026952E2B460F571F3F5F861BC9
:10287000970B3930A8F32093580680916F008B7F17
:1028800080936F008091B7058F5F803508F080E0FE
:102890009091B805891749F0E82FF0E0909158061B
:1028A000E65AF94F90838093B705809181008F7B22
:1028B00080938100109259061092BB0608C02093A5
:1028C000580650935706409356063093BB06FF9127
:1028D000EF919F918F917F916F915F914F913F9178
:1028E0002F910F900FBE0F901F9018951F920F926F
:1028F0000FB60F9211242F933F934F935F936F93D3
:102900007F938F939F93EF93FF932091B90540910D
:10291000550680918800909189006091BE06709163
:10292000BF06309154062930E8F4860F971F542FC4
:10293000517046952F5F5317B1F3309180005523A6
:1029400011F0306C02C03F73306830938000909378
:102950008900809388005093540640935506209335
:10296000B9053DC0293039F42AE02093B9052091FA
:102970008000206C28C02091BA06E091B9062E1381
:102980000DC01092B905809180008F7380938000F4
:1029900080916F008D7F80936F0021C021E0209394
:1029A000B905EF5FE43408F0E0E0E093B906F0E049
:1029B000EC5FF94F20812093550610925406209128
:1029C00080002F732068209380002091BE063091F4
:1029D000BF06820F931F9093890080938800FF9118
:1029E000EF919F918F917F916F915F914F913F9167
:1029F0002F910F900FBE0F901F9018959091BA06CF
:102A00009F5F943408F090E02091B9062917E1F314
:102A10002FB7F8943091B905332341F0E92FF0E056
:102A2000EC5FF94F80839093BA061DC091E09093BC
:102A3000B905809355061092540682E086BB8091BA
:102A40006F00826080936F00809180008F73806838
:102A500080938000809184009091850040969093AF
:102A60008900809388002FBF0895862F0E94FE144E
:102A700081E090E00895EF92FF920F931F93CF9320
:102A8000DF93CDB7DEB7C857D1090FB6F894DEBFD4
:102A90000FBECDBF8E010F571F4FF801E190F1908F
:102AA0008F010E940D084AE00E94E60589E295E048
:102AB0000E94C3059801A70168E770E0CE01019666
:102AC0000E94761ECE0101960E94E40588EA92E0FB
:102AD0000E941904C858DF4F0FB6F894DEBF0FBE2E
:102AE000CDBFDF91CF911F910F91FF90EF9008958F
:102AF0008091AE058F3F79F10E940D086093A80583
:102B00007093A9058093AA059093AB0589E196E09F
:102B10009F938F930E943B159091AE058091A602E2
:102B20000F900F909817A1F01F929F931F928F9371
:102B300081E096E09F938F930E943B158091AE05B4
:102B40008093A6020F900F900F900F900F900F9010
:102B50008BE191E01DC00E947A0A613D77408105BA
:102B60009105C0F08091AC05803618F487E191E0C2
:102B70000FC082EF95E09F938F930E943B15809149
:102B8000AC05877F8093AC050F900F9080E091E0BB
:102B90000C94170D089589EE95E09F938F930E94F2
:102BA0003B158FEF8093AE05ECEAF5E080818860FD
:102BB000808328E143E06FEF80E00E94950461E0AC
:102BC0000E94B3080F900F900C94F4088091A40217
:102BD0008F3F59F08EED95E09F938F930E943B15A8
:102BE0000F900F9087E191E018C00E947A0A613D32
:102BF00077408105910598F08091AC05803618F4F6
:102C000083E191E00AC080ED95E09F938F930E944D
:102C10003B150F900F908FE091E00C94170D0895E5
:102C200088EC95E09F938F930E943B150F900F9037
:102C30008091A4028F3FA1F48CEB95E09F938F933A
:102C40000E943B1523E043E06FEF80E00E94950473
:102C500062E771E00E94BF080F900F900C94F40897
:102C600008950E947A0A613D77408105910520F41C
:102C70008091AC0581FF08958091A5028F3F81F07E
:102C80008FEA95E09F938F930E943B158091AC054E
:102C90008E7F8093AC050F900F9083E191E019C077
:102CA0008091AC05803658F48BE895E09F938F9324
:102CB0000E943B150F900F9080E091E00AC08FE9D1
:102CC00095E09F938F930E943B150F900F908FE09C
:102CD00091E00C94170D81E895E09F938F930E94EB
:102CE0003B15ECEAF5E08081897F81608083E4EA2E
:102CF000F2E08FEF8283818327E043E06FEF0E9451
:102D0000950462E771E00E94BF080F900F900C9449
:102D1000F408CF9310926F001092800081E88093A6
:102D2000810081E493E09093BF068093BE0689E121
:102D30009EE19093BD068093BC0662E088E00E940D
:102D40009707299A219A1092BB061092B705109204
:102D5000B8051092B9051092BA061092B90680E231
:102D600086BB80936F000E947C12529A5A9880E72B
:102D700095E09F938F930E943B158091AC058061F5
:102D80008093AC058091A7028E7F8093A7021F924B
:102D9000C4E6CF938CE595E09F938F930E943B15FB
:102DA000C093A40264E680E090E00E944424C091B5
:102DB000A4020F900F900F900F900F900F90CF3FA5
:102DC00051F18FEF8C0F8E3FA0F4C093A1056C2FB3
:102DD00080E090E00E9444241F92CF9385E395E029
:102DE0009F938F930E943B150F900F900F900F9021
:102DF00012C01F921F9287E495E09F938F930E94C9
:102E00003B158FEF8093A4020F900F900F900F90BF
:102E10008FE091E002C080E091E0CF910C94170D1B
:102E20008BE295E09F938F930E943B15ECEAF5E0CF
:102E30008081877F8F7E80831092A8051092A905DC
:102E40001092AA051092AB050F900F9044E050E04D
:102E500060E070E084EA92E00C9424241F920F92C8
:102E60000FB60F9211240F900FBE0F901F90189560
:102E70008F929F92AF92BF92CF92DF92EF92FF928A
:102E80000F931F93CF93DF931F92CDB7DEB78C01C3
:102E9000F62EFC0187849088A188B28849830E941D
:102EA0000D084981F801681579058A059B0508F424
:102EB0007DC08085811102C0FF2019F1F801818554
:102EC00092859C01225031092230310508F476C0E8
:102ED000049781F40E940D08DC01CB0180579E4FBE
:102EE000AF4FBF4FF8018787908BA18BB28B60E00B
:102EF00070E058C082E090E0F8019287818761E03D
:102F000014C0442389F1F8018185928581309105AF
:102F100009F454C08430910509F450C00297D1F2ED
:102F200084E090E09287818760E082810E94670759
:102F300066E970E080E090E00E94D30760E0F8016D
:102F400080810E9467070E940D08F801C480D58027
:102F5000E680F780DC01CB018C0D9D1DAE1DBF1DF1
:102F600083879487A587B687F801C384D484E584D2
:102F7000F6840E940D086C157D058E059F05A8F04E
:102F8000F80183859485A585B685181619061A0655
:102F90001B065CF4F801818592858230910549F425
:102FA00063E070E0C8010E94C612F8018185928535
:102FB00005C00497D1F761E070E0F4CF0F90DF9186
:102FC000CF911F910F91FF90EF90DF90CF90BF9026
:102FD000AF909F908F9008951F93CF93DF93162FFC
:102FE000EC01CC0FDD1FFE01ED54FA4F91E0208182
:102FF00031812130310509F090E01093B2048091C5
:10300000AF04877088608093AF048091B0048F71A3
:1030100080628093B0049093B3048CEA94E00E94A1
:10302000890691E0FE01ED54FA4F20813181223072
:10303000310509F090E01093910480918E0487701F
:10304000886080938E0480918F048F71806280935A
:103050008F04909392048BE894E00E94890691E09B
:10306000FE01ED54FA4F20813181232B09F090E0CD
:103070001093700480916D048770886080936D0454
:1030800080916E048F71806280936E0490937104BE
:103090008AE694E00E948906C459DE4F288139816E
:1030A00010934F0480914D048F71806480934D0480
:1030B00080914C048770806180934C04309351045C
:1030C0002093500489E494E0DF91CF911F910C94F8
:1030D000890662E070E080E090E00E94EC1763E017
:1030E00070E081E090E00E94EC1781E09091240272
:1030F000911101C080E080931F0108959F92AF92CB
:10310000BF92CF92DF92EF92FF920F931F93CF93D4
:10311000DF9386E00E943E07AA24A394892B09F03E
:10312000A12C87E00E943E0799249394892B09F0F3
:10313000912C84E00E943E0701E0892B09F000E019
:1031400083E00E943E07BB24B394892B09F0B12C85
:1031500085E00E943E0711E0892B09F010E01093F2
:10316000D6040E940D08C090CA06D090CB06E0900D
:10317000CC06F090CD069B01AC012C193D094E09FF
:103180005F0969017A0131E2C3163FEBD30632E0F1
:10319000E306F10408F476C06093CA067093CB0688
:1031A0008093CC069093CD0681E08093800283E2E9
:1031B0008093A202109281021092A30262E00E9408
:1031C000A2061092BA058093BB0585E493E00E94A5
:1031D000750ED82F40E0C42F85E493E00E94750E51
:1031E000C82BD92B0E94A404BE0180E090E00E946D
:1031F00096232AE939E949E95FE30E94F0240E9415
:1032000062256B017C018091C8069091C9068C15DE
:103210009D0531F180910B048F71806680930B04C2
:1032200080910A048770806180930A04D0920F0411
:10323000C0920E0487E094E00E948906D092C906ED
:10324000C092C8068BEC91E00E94E405B60180E0D4
:1032500090E04AE00E94E60580E791E00E94B10517
:1032600080912B048770886080932B0480912C04BC
:103270008F71806280932C0410932F0488E294E075
:103280000E948906492D6A2D8EEC94E00E94381721
:103290009093B4058093B3054B2D602F81EE94E09D
:1032A0000E9438179093B6058093B5052091B30519
:1032B0003091B4058091C4069091C506281739074E
:1032C00029F162E070E080E090E00E94EC178091CC
:1032D000B3059091B4059093C5068093C4061092EF
:1032E000C1061092C00680ED91E00E94E40582E0E4
:1032F00090E00E94270680EE91E00E94E405809114
:10330000B3059091B4050E94270606C08091C006BF
:103310009091C106892BA9F62091B5053091B6058B
:103320008091C6069091C7062817390731F480911D
:10333000C2069091C306892B79F163E070E081E0C9
:1033400090E00E94EC178091B5059091B60590939E
:10335000C7068093C6061092C3061092C20680ED7F
:1033600091E00E94E40583E090E00E94270680EE51
:1033700091E00E94E4058091B5059091B605DF913A
:10338000CF911F910F91FF90EF90DF90CF90BF9062
:10339000AF909F900C942706DF91CF911F910F91D2
:1033A000FF90EF90DF90CF90BF90AF909F900895E7
:1033B0002BE043E06FEF80E00E94950469EE71E03E
:1033C0000E94BF080E94080A2CE043E06FEF80E0F3
:1033D0000E94950465EF71E00E94BF080E94080AF0
:1033E00060E180E00E9473066AE081E00E9473065B
:1033F00065E082E00E94730667E182E00E94730646
:1034000065E083E00E94730667E183E00E94730633
:1034100068E08AE00E94730666E08BE00E94730613
:1034200067E08CE00C947306CF93DF9361E08DE04E
:103430000E94970761E08BE00E94970761E08DE0B2
:103440000E94670761E08BE00E94670761E08CE003
:103450000E94970761E08AE00E94970761E08CE094
:103460000E94670761E08AE00E94670762E084E0EB
:103470000E94970762E083E00E94970762E086E07F
:103480000E94970762E087E00E94970762E085E06C
:103490000E94970766E070E08FED93E00E9417119D
:1034A000C5E0D0E0D093E603C093E50367E070E0A9
:1034B00085ED93E00E941711D093DC03C093DB03EA
:1034C00064E070E08DEF93E00E941711D093040444
:1034D000C093030463E070E083EF93E00E94171150
:1034E000D093FA03C093F90365E070E089EE93E0AE
:1034F0000E941711D093F003C093EF031092BA0506
:103500001092BB05109281021092A3020E945E12DB
:103510001092BA051092BB05109281021092A3027C
:103520000E945E1281E08093800283E28093A20277
:10353000109281021092A30260E185E493E00E9460
:10354000B90E0E94A4048FE39CE90197F1F700C033
:103550000000DF91CF9108951F93CF93DF93E8EAA6
:10356000F2E01382128288EE93E0A0E0B0E0848360
:103570009583A683B78328E231E03183208325EC4D
:1035800030E03587248724EC30E03787268720EC2D
:1035900030E0318B208B21EC30E0338B228B22EC1E
:1035A00030E0358B248B26EC30E0378B268B118E68
:1035B000128E138E148EE5E4F3E01382128284835C
:1035C0009583A683B7832AE331E031832083EBE63A
:1035D000F5E01382128284839583A683B7838EE5F8
:1035E00091E0918380838AE495E00E94D71B89E271
:1035F00095E00E94D71BE4EFF4E081E090E0938334
:10360000828395838483978386839187808785E0EF
:1036100090E093878287158614861786168613AAEC
:1036200084E591E09183808386E784ABEEECF4E05F
:103630008DE090E0918380838BE090E093838283A0
:1036400088ED96EDA0E0B0E084839583A683B783F0
:1036500010868CE090E0948B838BCAE0D0E0D68B10
:10366000C58B80E69AEEA0E0B0E0878B908FA18FAB
:10367000B28F138E8CEA94E00E94D71BECEAF4E040
:1036800012E016838DE185838BE894E00E94D71BBE
:10369000EBE8F4E016838EE185838AE694E00E94ED
:1036A000D71BEAE6F4E016838FE1858389E494E092
:1036B0000E94D71BE9E4F4E01683158388E294E0C6
:1036C0000E94D71BE8E2F4E011E0168386E08583D0
:1036D00087E094E00E94D71BE7E0F4E0168287E1E0
:1036E0008583EDEFF3E08CE491E091838083128297
:1036F000138214821582D783C68310861186E3EF66
:10370000F3E0918380831282138214821582D7831F
:10371000C68310861186E9EEF3E0918380831282DE
:10372000138214821582D783C68310861186EFED2B
:10373000F3E0918380831282138214821582D783EF
:10374000C68310861186E5EDF3E0918380831282B3
:10375000138214821582D783C6831086118684EB68
:1037600093E00E94D71BE4EBF3E08BE086831582A5
:1037700083E993E00E94D71BE3E9F3E0C68384E08A
:10378000858382E793E00E94D71BE2E7F3E0C683DC
:1037900085E0858381E593E00E94D71BE1E5F3E0B6
:1037A0008CE086831583DF91CF911F910895CF938D
:1037B000DF93FC011082118212821482158216821C
:1037C000DC0117968AE1ED0119928A95E9F782E00A
:1037D0008383DF91CF910895789484B5826084BD0E
:1037E00084B5816084BD85B5826085BD85B5816005
:1037F00085BD80916E00816080936E001092810083
:10380000809181008260809381008091810081603D
:1038100080938100809180008160809380008091FE
:10382000B10084608093B1008091B000816080938A
:10383000B00080917A00846080937A0080917A0051
:10384000826080937A0080917A00816080937A0010
:1038500080917A00806880937A001092C100A895C8
:1038600080E090E0892B11F00E940000E091B80206
:10387000F091B90282E08083E091B402F091B50248
:103880001082E091B602F091B70280E1808310923D
:10389000C002E091BC02F091BD0286E08083E0911D
:1038A000BA02F091BB02808180618083E091BA020C
:1038B000F091BB02808188608083E091BA02F09130
:1038C000BB02808180688083E091BA02F091BB02E4
:1038D00080818F7D808300E110E0F12CF801F59567
:1038E000E795E35FFB4FE49100FFE295EF70E8306E
:1038F00008F09FC0F0E0E35FFB4FF490C1E0D0E040
:10390000E091A802F091A9020190F081E02D6F2DC5
:1039100088EA92E00995DF5FDC13F2CF0F5F1F4F5B
:10392000023F1105D9F686E094E00E94C30580E7C6
:1039300091E00E94B10588EC94E09F938F930E94E0
:103940003B15809125028D7F809325020F900F906B
:103950008BEB94E09F938F930E943B150E94141A67
:103960000F900F9041E050E063E071E084E292E05C
:103970000E9424246FEF81E090E00E944424809113
:10398000AD058F788093AD051092A3051092A20526
:1039900084E091E00E94170D8CE49AE09093B205C8
:1039A0008093B1051F921F928FE08F9380EA8F93CF
:1039B00086E894E09F938F930E943B150E940D0828
:1039C0006B017C010F900F900F900F900F900F9054
:1039D0000E940D08DC01CB018C199D09AE09BF09BD
:1039E000803A9F40A105B10538F18EEA94E09F939B
:1039F0008F930E943B150E9469180F900F90809141
:103A0000AC0582FB882780F91F928F9386E994E0AA
:103A10009F938F930E943B15A8950F900F900F9046
:103A20000F90A8950E948D0A0E947E180E943B0468
:103A3000F8CFCBEFCE0F63CF0E948D0AA89580916F
:103A4000AC0582FFC5CFD1CF8EE591E090936C0598
:103A500080936B0580916F008B7F80936F008091C6
:103A60006F008F7D80936F008091B8058093B705BC
:103A70008091B9058111FCCF80916F008D7F80937B
:103A80006F000895EF920F931F93CF93DF93E80198
:103A900047FD02C034E001C034E1E42F440FFF0BC6
:103AA000F7FF03C0F195E195F109E32E022F2E2FC8
:103AB000AE010E947420CE01DF91CF911F910F9132
:103AC000EF9008958F929F92AF92BF92CF92DF9224
:103AD000EF92FF92CF93DF93EC01688179818A8125
:103AE0009B81611571058105910521F464E279EDF1
:103AF0008BE597E02DE133EF41E050E00E94562442
:103B000049015A019B01AC01A7EAB1E40E94752466
:103B10006B017C01ACEEB4EFA50194010E948324FB
:103B2000DC01CB018C0D9D1DAE1DBF1DB7FF03C079
:103B30000197A109B04888839983AA83BB839F77A3
:103B4000DF91CF91FF90EF90DF90CF90BF90AF903B
:103B50009F908F9008950E94621D089580E291E0E9
:103B60000E94621D0895A0E0B0E080932001909330
:103B70002101A0932201B09323010895FC0188271D
:103B80009927E89421912032E9F3293010F02E3062
:103B9000C8F32B3241F02D3239F4689404C00E94EE
:103BA000321E820F911D219120532A30C0F31EF442
:103BB000909581959F4F08951F93FC019927882721
:103BC000BC01E89411911032E9F3193010F01E3065
:103BD000C8F31B3251F01D3249F4689406C00E94AC
:103BE0001D1E610F711D811D911D119110531A3001
:103BF000B0F33EF490958095709561957F4F8F4F0F
:103C00009F4F1F910895BB274A3031F4992322F426
:103C1000BDE2909581959F4F0C945D1EBB272A3085
:103C200051F4992342F4BDE2909580957095619589
:103C30007F4F8F4F9F4F0C943B1E592F482F372F8C
:103C4000262F660F771F881F991F660F771F881F03
:103C5000991F620F731F841F951F660F771F881FA0
:103C6000991F08957AE0979F902D879F802D910D41
:103C700011240895BB27FA01A62F6217710581054B
:103C80009105330B30FB66F0AA27660F771F881F5C
:103C9000991FAA1FA21710F0A21B63953850A9F70D
:103CA000A05DAA3308F0A95DA19336F7B111B193D5
:103CB0001082CA010C94F022BB27FB015527AA27CA
:103CC000880F991FAA1FA41710F0A41B83955051A9
:103CD000B9F7A05DAA3308F0A95DA193009779F721
:103CE000B111B1931192CB010C94F022AEE0B0E08F
:103CF000ECE7FEE10C9496248C01CA014EE04C8363
:103D00001A83098377FF02C060E070E8FB013197F6
:103D1000FE83ED83A901BC01CE0101960E94A21E83
:103D20004D815E8157FD0AC02F81388542175307A8
:103D30000CF49A01F801E20FF31F10822E96E4E0D2
:103D40000C94B224ACE0B0E0E8EAFEE10C948824E4
:103D50007C016B018A01FC0117821682838181FF3D
:103D6000BDC1CE0101964C01F7019381F60193FD8F
:103D7000859193FF81916F01882309F4ABC185324E
:103D800039F493FD859193FF81916F01853229F478
:103D9000B70190E00E940023E7CF512C312C20E0A6
:103DA0002032A0F48B3269F030F4803259F0833243
:103DB00069F420612CC08D3239F0803339F42160F0
:103DC00026C02260246023C0286021C027FD27C0B0
:103DD00030ED380F3A3078F426FF06C0FAE05F9EE7
:103DE000300D1124532E13C08AE0389E300D11245B
:103DF000332E20620CC08E3221F426FD6BC120646C
:103E000006C08C3611F4206802C0883641F4F601F1
:103E100093FD859193FF81916F018111C1CF982FFF
:103E20009F7D9554933028F40C5F1F4FFFE3F98377
:103E30000DC0833631F0833771F0833509F05BC0F4
:103E400022C0F801808189830E5F1F4F4424439470
:103E5000512C540115C03801F2E06F0E711CF801AD
:103E6000A080B18026FF03C0652D70E002C06FEF17
:103E70007FEFC5012C870E94E5222C0183012C8550
:103E80002F77222E17C03801F2E06F0E711CF80157
:103E9000A080B18026FF03C0652D70E002C06FEFE7
:103EA0007FEFC5012C870E94DA222C012C85206827
:103EB000222E830123FC1BC0832D90E04816590657
:103EC000B0F4B70180E290E00E9400233A94F4CF6E
:103ED000F50127FC859127FE81915F01B70190E0F4
:103EE0000E94002331103A94F1E04F1A5108411416
:103EF000510471F7E5C0843611F0893639F5F801BF
:103F000027FF07C060817181828193810C5F1F4F01
:103F100008C060817181072E000C880B990B0E5F21
:103F20001F4F2F76722E97FF09C090958095709540
:103F300061957F4F8F4F9F4F2068722E2AE030E0AF
:103F4000A4010E943823A82EA81844C0853729F45C
:103F50002F7EB22E2AE030E025C0F22FF97FBF2E4F
:103F60008F36C1F018F4883579F0B4C0803719F075
:103F7000883721F0AFC02F2F2061B22EB4FE0DC0C4
:103F80008B2D8460B82E09C024FF0AC09F2F966035
:103F9000B92E06C028E030E005C020E130E002C0C4
:103FA00020E132E0F801B7FE07C0608171818281B3
:103FB00093810C5F1F4F06C06081718180E090E0AB
:103FC0000E5F1F4FA4010E943823A82EA818FB2DB6
:103FD000FF777F2E76FE0BC0372D3E7FA51450F461
:103FE00074FE0AC072FC08C0372D3E7E05C0BA2C94
:103FF000372D03C0BA2C01C0B52C34FF0DC0FE0113
:10400000EA0DF11D8081803311F4397E09C032FF41
:1040100006C0B394B39404C0832F867809F0B39498
:1040200033FD13C030FF06C05A2CB31418F4530CE0
:104030005B18B32CB31468F4B70180E290E03C87BE
:104040000E940023B3943C85F5CFB31410F43B18C1
:1040500001C0312C34FF12C0B70180E390E03C87EF
:104060000E9400233C8532FF17C031FD03C088E762
:1040700090E002C088E590E0B7010CC0832F8678FD
:1040800059F031FF02C08BE201C080E237FD8DE2C2
:10409000B70190E00E940023A51438F4B70180E333
:1040A00090E00E9400235A94F7CFAA94F401EA0DFD
:1040B000F11D8081B70190E00E940023A110F5CF8F
:1040C000332009F451CEB70180E290E00E94002332
:1040D0003A94F6CFF7018681978102C08FEF9FEF68
:1040E0002C96E2E10C94A4244F925F926F927F92FF
:1040F0009F92AF92BF92CF92DF92EF92FF920F9377
:104100001F93CF93DF93CDB7DEB729970FB6F894FF
:10411000DEBF0FBECDBF6A01122FB02E2BE32017DA
:1041200020F0FF24F394F00E02C0BCE3FB2E0F2D11
:1041300027E0AE014F5F5F4F0E940222AC018981F0
:10414000982F9970913031F0E1FC06C0E0FE06C076
:1041500090E205C09DE203C09BE201C090E0EE2D1D
:10416000E07183FF3CC0911102C083E001C084E094
:10417000811718F4212F281B01C020E0E1110BC08A
:10418000F601822F30E2882319F031938150FBCF62
:10419000C20ED11C20E0992329F0D6019C93F60190
:1041A00031966F01C6010396E2FE0AC03EE4D601D5
:1041B0003C9341E411964C93119712963C9306C0A0
:1041C0003EE6F601308341E641833283FC01322F23
:1041D00040E2332309F442C041933150FACF82FFC9
:1041E00044C0911102C083E001C084E0811718F43B
:1041F000212F281B01C020E0E1110BC0F601822F06
:1042000030E2882319F031938150FBCFC20ED11CCC
:1042100020E0992329F0D6019C93F60131966F0195
:10422000C6010396E2FE0BC039E4D6013C933EE49E
:1042300011963C93119736E412963C9307C039E6E9
:10424000F60130833EE6318336E63283FC01322FBD
:1042500040E2332319F041933150FBCFFC01E20FD0
:10426000F11D10828EEF9FEFB7C0F1E0911101C0F8
:10427000F0E06F2F70E01416150624F49A012F5FFA
:104280003F4F02C021E030E0260F371FBB2029F04E
:104290006B2D70E06F5F7F4F02C060E070E0260F13
:1042A000371F612F70E0261737071CF4121B212FD0
:1042B00001C020E03E2D387159F4D601322F60E262
:1042C000332319F06D933150FBCFC20ED11C20E087
:1042D000FF2331F0D6019C93B6016F5F7F4F6B01D6
:1042E000E1110BC0F601922F30E3992319F03193BD
:1042F0009150FBCFC20ED11C20E09F2D940F3A812C
:10430000782F7071A72E84FF03C0313309F49150C8
:10431000191624F4993018F098E001C091E0E42FC8
:10432000852F57FF02C0E0E080E06E2F782FE0E09D
:10433000F0E0AEE29A2E3A01691A71082A01461A93
:10434000570A0B2D10E01195019511096F3F8FEF62
:10435000780729F4D6019C92C60101966C01461794
:10436000570784F0661677066CF47F01E40CF51CA1
:10437000A1E0B0E0AC0FBD1FEA0EFB1ED701119605
:10438000BC9002C090E3B92E615071093196C6010C
:1043900001967C016017710724F0D601BC926C0174
:1043A000D5CF6417750741F4363320F4353321F443
:1043B000A11002C081E3B82EF601B082F701822F6E
:1043C00090E2882319F091938150FBCFF701E20F1F
:1043D000F11D108280E090E029960FB6F894DEBFC0
:1043E0000FBECDBFDF91CF911F910F91FF90EF9046
:1043F000DF90CF90BF90AF909F907F906F905F9035
:104400004F900895283008F027E03327DA01990FFC
:10441000311D87FD916000966105710539F43260A8
:104420002E5F3D9330E32A95E1F708959F3F30F0EA
:1044300080387105610509F03C5F3C5F3D93913028
:1044400008F08068911DDF93CF931F930F93FF9225
:10445000EF92192F987F9695E92F96959695E90FEB
:10446000FF27EE53FF4F99273327EE24FF24A701A0
:10447000E70105900894079428F4360FE71EF81E0C
:10448000491F511D660F771F881F991F0694A1F7BA
:104490000590079428F4E70EF81E491F561FC11D0A
:1044A000770F881F991F661F0694A1F70590079440
:1044B00028F4F80E491F561FC71FD11D880F991FDA
:1044C000661F771F0694A1F70590079420F4490F03
:1044D000561FC71FD81F990F661F771F881F069486
:1044E000A9F784911095177041F0D695C795579507
:1044F0004795F794E7941A95C1F7E8E6F0E06894D9
:104500001590159135916591959105907FE2739580
:10451000E118F10A430B560BC90BD009C0F7E10CA7
:10452000F11E431F561FC91FD01D7EF4703311F4B6
:104530008A95E6CFE894015030F0080F0AF400277E
:10454000021708F4202F2395022F7A3328F079E3FD
:104550007D932A95E9F710C07D932A9589F60694F4
:1045600097956795379517951794E118F10A430BBE
:10457000560BC90BD00998F023957E9173957A3329
:1045800008F070E37C932013B8F77E9170617D93FF
:1045900030F0839571E37D9370E32A95E1F7112460
:1045A000EF90FF900F911F91CF91DF91992787FD99
:1045B00090950895FC010590615070400110D8F766
:1045C000809590958E0F9F1F0895FC01615070405B
:1045D00001900110D8F7809590958E0F9F1F089538
:1045E000DC01FC01672F71917723E1F7329704C05A
:1045F0007C916D9370836291AE17BF07C8F30895E5
:104600000F931F93CF93DF93FB01238121FD03C001
:104610008FEF9FEF28C022FF16C04681578124816B
:1046200035814217530744F4A081B1819D012F5F6A
:104630003F4F318320838C93268137812F5F3F4FFB
:104640003783268310C0EB01092F182F0084F185D2
:10465000E02D0995892BE1F68E819F8101969F833C
:104660008E83812F902FDF91CF911F910F9108950D
:10467000FA01AA27283051F1203181F1E8946F9393
:104680006E7F6E5F7F4F8F4F9F4FAF4FB1E03ED039
:10469000B4E03CD0670F781F891F9A1FA11D680FD7
:1046A000791F8A1F911DA11D6A0F711D811D911D0A
:1046B000A11D20D009F468943F912AE0269F11247F
:1046C0003019305D3193DEF6CF010895462F4770E3
:1046D000405D4193B3E00FD0C9F7F6CF462F4F703E
:1046E000405D4A3318F0495D31FD4052419302D09C
:1046F000A9F7EACFB4E0A695979587957795679542
:10470000BA95C9F700976105710508959B01AC0141
:104710000A2E06945795479537952795BA95C9F768
:10472000620F731F841F951FA01D0895E89409C090
:1047300097FB3EF490958095709561957F4F8F4FD4
:104740009F4F9923A9F0F92F96E9BB279395F695EA
:10475000879577956795B795F111F8CFFAF4BB0F68
:1047600011F460FF1BC06F5F7F4F8F4F9F4F16C0CC
:10477000882311F096E911C0772321F09EE8872F56
:10478000762F05C0662371F096E8862F70E060E012
:104790002AF09A95660F771F881FDAF7880F96958B
:1047A000879597F9089597F99F6780E870E060E032
:1047B00008959FEF80EC089500240A9416161706BA
:1047C00018060906089500240A9412161306140602
:1047D00005060895092E0394000C11F4882352F065
:1047E000BB0F40F4BF2B11F460FF04C06F5F7F4F1D
:1047F0008F4F9F4F089557FD9058440F551F59F004
:104800005F3F71F04795880F97FB991F61F09F3FBD
:1048100079F087950895121613061406551FF2CFE6
:104820004695F1DF08C0161617061806991FF1CF36
:1048300086957105610508940895E894BB2766275D
:104840007727CB0197F90895DC01CB01FC01F99999
:10485000FECF06C0F2BDE1BDF89A319600B40D92CC
:1048600041505040B8F70895DC01A40FB51F4150E6
:10487000504048F0CB01840F951F2E910E94452493
:1048800041505040D0F70895262FF999FECF92BDA0
:1048900081BDF89A019700B4021639F01FBA20BD05
:1048A0000FB6F894FA9AF99A0FBE0895052E97FB61
:1048B0001EF400940E946D2457FD07D00E94BF246F
:1048C00007FC03D04EF40C946D2450954095309520
:1048D00021953F4F4F4F5F4F08959095809570956C
:1048E00061957F4F8F4F9F4F08950E94E124A59FB0
:1048F000900DB49F900DA49F800D911D11240895DB
:10490000B7FF0C9475240E947524821B930B0895A5
:104910002F923F924F925F926F927F928F929F92CF
:10492000AF92BF92CF92DF92EF92FF920F931F93BD
:10493000CF93DF93CDB7DEB7CA1BDB0B0FB6F8946E
:10494000DEBF0FBECDBF09942A88398848885F84AE
:104950006E847D848C849B84AA84B984C884DF801F
:10496000EE80FD800C811B81AA81B981CE0FD11D03
:104970000FB6F894DEBF0FBECDBFED010895A1E2E2
:104980001A2EAA1BBB1BFD010DC0AA1FBB1FEE1FC9
:10499000FF1FA217B307E407F50720F0A21BB30B14
:1049A000E40BF50B661F771F881F991F1A9469F790
:1049B00060957095809590959B01AC01BD01CF01EC
:1049C0000895A29FB001B39FC001A39F700D811DE8
:1049D0001124911DB29F700D811D1124911D089508
:1049E0000E9404250C94EA230E94E32358F00E94BD
:1049F000DC2340F029F45F3F29F00C94D3235111BC
:104A00000C941E240C94D9230E94FB2368F3992351
:104A1000B1F3552391F3951B550BBB27AA276217BA
:104A20007307840738F09F5F5F4F220F331F441FC7
:104A3000AA1FA9F335D00E2E3AF0E0E832D09150FB
:104A40005040E695001CCAF72BD0FE2F29D0660FE8
:104A5000771F881FBB1F261737074807AB07B0E82B
:104A600009F0BB0B802DBF01FF2793585F4F3AF031
:104A70009E3F510578F00C94D3230C941E245F3F85
:104A8000E4F3983ED4F3869577956795B795F795B7
:104A90009F5FC9F7880F911D9695879597F908959F
:104AA000E1E0660F771F881FBB1F6217730784073B
:104AB000BA0720F0621B730B840BBA0BEE1F88F74A
:104AC000E09508950E94032488F09F5798F0B92F2D
:104AD0009927B751B0F0E1F0660F771F881F991F33
:104AE0001AF0BA95C9F714C0B13091F00E941D2494
:104AF000B1E008950C941D24672F782F8827B85FA4
:104B000039F0B93FCCF3869577956795B395D9F78A
:104B10003EF490958095709561957F4F8F4F9F4F94
:104B2000089597FB072E16F4009407D077FD09D05F
:104B30000E94A52507FC05D03EF4909581959F4FD6
:104B40000895709561957F4F0895AA1BBB1B51E195
:104B500007C0AA1FBB1FA617B70710F0A61BB70BED
:104B6000881F991F5A95A9F780959095BC01CD0192
:104B70000895EE0FFF1F0590F491E02D099481E058
:104B800090E0F8940C94DC25FB01DC0102C001905C
:104B90000D9241505040D8F70895FB01DC0141507F
:104BA000504048F001900D920020C9F701C01D92BD
:104BB00041505040E0F7089513E0C4E1D3E004C051
:104BC000FE010E94B9252196C531D107C9F7F89495
:024BD000FFCF15
:104BD2006B163116101789167D0D7D0DFFFFFF4FE5
:104BE20008430D1016E615CB15781587086B0D01D5
:104BF2000100000000000000D2033F036A03190411
:104C02009B0379038D0300000000B90E890EC312C5
:104C1200650E7E0D750E660E00000000540F500FDB
:104C220000000000860DE80E0A0F00000000351596
:104C32003F03C312BD128912A7129812000000008E
:104C42000D0A00322E332E30003C4E4F4E43453E6D
:104C5200004F4B004E41434B003F0021004757207D
:104C62004D6573736167652075703A200047572060
:104C72004D6573736167652073746F703A200047E6
:104C820057204D736720646F776E3A200047572094
:104C92004D73672075702C204320006C75783A00A4
:104CA200427574746F6E20707265737320432000B6
:104CB20052657475726E3A2000446F75626C65437A
:0C4CC2006F76657200302E332E356300D3
:107800000C94343C0C94513C0C94513C0C94513CE1
:107810000C94513C0C94513C0C94513C0C94513CB4
:107820000C94513C0C94513C0C94513C0C94513CA4
:107830000C94513C0C94513C0C94513C0C94513C94
:107840000C94513C0C94513C0C94513C0C94513C84
:107850000C94513C0C94513C0C94513C0C94513C74
:107860000C94513C0C94513C11241FBECFEFD8E036
:10787000DEBFCDBF11E0A0E0B1E0ECE9FFE702C060
:1078800005900D92A230B107D9F712E0A2E0B1E065
:1078900001C01D92AD30B107E1F70E942D3D0C945F
:1078A000CC3F0C94003C982F959595959595959582
:1078B000905D8F708A307CF0282F295A8091C0000B
:1078C00085FFFCCF9093C6008091C00085FFFCCF60
:1078D0002093C6000895282F205DF0CF982F809127
:1078E000C00085FFFCCF9093C6000895EF92FF92F1
:1078F0000F931F93EE24FF2487018091C00087FD22
:1079000017C00894E11CF11C011D111D81E4E8164B
:1079100082E4F8068FE0080780E0180770F3E09132
:107920000401F091050109958091C00087FFE9CF1E
:107930008091C6001F910F91FF90EF9008950E94D3
:10794000763C982F8091C00085FFFCCF9093C600B5
:1079500091362CF490330CF09053892F089597555D
:10796000892F08951F930E949F3C182F0E949F3CCF
:107970001295107F810F1F9108951F93182F882350
:1079800021F00E94763C1150E1F71F9108951F935A
:10799000182F0E94763C803249F0809103018F5F5E
:1079A000809303018530C1F01F9108958091C0003C
:1079B00085FFFCCF84E18093C6008091C00085FFE5
:1079C000FCCF1093C6008091C00085FFFCCF80E102
:1079D0008093C6001F910895E0910401F091050184
:1079E00009951F9108950E94763C803241F0809164
:1079F00003018F5F80930301853081F008958091AA
:107A0000C00085FFFCCF84E18093C6008091C00058
:107A100085FFFCCF80E18093C6000895E0910401CA
:107A2000F09105010995089540E951E08823A1F0FE
:107A30002D9A28EE33E0FA013197F1F721503040CA
:107A4000D1F72D9828EE33E0FA013197F1F7215064
:107A50003040D1F7815061F708953F924F925F9285
:107A60006F927F928F929F92AF92BF92CF92DF924E
:107A7000EF92FF920F931F93CF93DF93000080E16B
:107A80008093C4001092C50088E18093C10086E015
:107A90008093C2005098589A259A81E00E94143D24
:107AA00024E1F22E9EE1E92E85E9D82E0FE0C02ECA
:107AB00010E1B12EAA24A394B1E49B2EA6E58A2E50
:107AC000F2E57F2EE0E26E2E79E4572E63E5462E36
:107AD00050E5352E0E94763C8033B1F18133B9F107
:107AE000803409F46FC0813409F476C0823409F41B
:107AF00085C0853409F488C0803531F1823521F1A3
:107B0000813511F1853509F485C0863509F48DC0BC
:107B1000843609F496C0843709F403C1853709F423
:107B200072C1863709F466C0809103018F5F80932C
:107B30000301853079F6E0910401F0910501099582
:107B40000E94763C803351F60E94F33CC3CF0E94E2
:107B5000763C803249F78091C00085FFFCCFF092DF
:107B6000C6008091C00085FFFCCF9092C600809136
:107B7000C00085FFFCCF8092C6008091C00085FFC9
:107B8000FCCF7092C6008091C00085FFFCCF609250
:107B9000C6008091C00085FFFCCF5092C600809146
:107BA000C00085FFFCCF4092C6008091C00085FFD9
:107BB000FCCF3092C6008091C00085FFFCCFB09210
:107BC000C60088CF0E94763C863808F4BDCF0E945C
:107BD000763C0E94F33C7ECF0E94763C803809F4CC
:107BE0009CC0813809F40BC1823809F43CC1883942
:107BF00009F48FC080E00E94C73C6CCF84E10E94F2
:107C0000BD3C0E94F33C66CF85E00E94BD3C0E94D3
:107C1000F33C60CF0E94763C809306010E94763C44
:107C2000809307010E94F33C55CF0E94763C80333D
:107C300009F41DC183E00E94BD3C80E00E94C73C66
:107C400049CF0E94763C809309020E94763C809343
:107C5000080280910C028E7F80930C020E94763C79
:107C6000853409F415C18091080290910902892B8D
:107C700089F000E010E00E94763CF801E85FFE4FDA
:107C800080830F5F1F4F80910802909109020817AF
:107C9000190788F30E94763C803209F045CF809125
:107CA0000C0280FF01C16091060170910701660F0F
:107CB000771F7093070160930601A0910802B091AD
:107CC00009021097C9F0E8E0F1E09B01AD014E0F09
:107CD0005F1FF999FECF32BD21BD819180BDFA9A17
:107CE000F99A2F5F3F4FE417F50799F76A0F7B1F4B
:107CF00070930701609306018091C00085FFFCCF5F
:107D0000F092C6008091C00085FFFCCFB092C60003
:107D1000E1CE83E00E94C73CDDCE82E00E94C73CFA
:107D2000D9CE0E94763C809309020E94763C8093D3
:107D300008028091060190910701880F991F909386
:107D40000701809306010E94763C853409F4A6C0A1
:107D500080910C028E7F80930C020E94763C8032D0
:107D600009F0B8CE8091C00085FFFCCFF092C6002C
:107D7000609108027091090261157105B9F140E046
:107D800050E080910C02A82FA170B82FB27011C0E2
:107D9000BB2309F45CC0E0910601F0910701319624
:107DA000F0930701E09306014F5F5F4F46175707B7
:107DB000E8F4AA2369F3F999FECF209106013091E6
:107DC000070132BD21BDF89A90B58091C00085FFB2
:107DD000FCCF9093C6002F5F3F4F30930701209355
:107DE00006014F5F5F4F4617570718F38091C00099
:107DF00085FDE5CE8091C00085FFF8CFE0CE81E023
:107E00000E94C73C67CE0E94763C803209F08CCE3F
:107E10008091C00085FFFCCFF092C6008091C00029
:107E200085FFFCCFE092C6008091C00085FFFCCFAB
:107E3000D092C6008091C00085FFFCCFC092C600E2
:107E40008091C00085FFFCCFB092C60043CEE09188
:107E50000601F091070194918091C00085FFFCCF4D
:107E60009093C6009CCF80E10E94C73C33CE0E9415
:107E7000763C0E94763C182F0E94763C112309F430
:107E800083C0113009F484C08FE00E94C73C22CE29
:107E900080910C02816080930C02E5CE80910C02EF
:107EA000816080930C0259CF809107018823880F4D
:107EB000880B8A2180930B02809106019091070123
:107EC000880F991F90930701809306018091080203
:107ED00080FF09C080910802909109020196909359
:107EE000090280930802F894F999FECF1127E091D6
:107EF0000601F0910701C8E0D1E08091080290915D
:107F00000902103091F40091570001700130D9F34B
:107F100003E000935700E89500915700017001308D
:107F2000D9F301E100935700E89509901990009169
:107F3000570001700130D9F301E000935700E89534
:107F40001395103498F011270091570001700130FB
:107F5000D9F305E000935700E895009157000170B0
:107F60000130D9F301E100935700E895329602976A
:107F700009F0C7CF103011F00296E5CF112480919F
:107F8000C00085FFB9CEBCCE8EE10E94C73CA2CD19
:0C7F900085E90E94C73C9ECDF894FFCF0D
:027F9C00800063
:040000030000780081
:00000001FF
